:100000000C94062D0C94792F0C94242D0C94242DF3
:100010000C94242D0C94242D0C94242D0C94242D1C
:100020000C94242D0C94242D0C94242D0C94242D0C
:100030000C94242D0C94242D0C94242D0C94242DFC
:100040000C94242D0C94242D0C94242D0C94242DEC
:100050000C94242D0C94242D0C94242D0C94242DDC
:100060000C94242D0C94242D0C94242D0C94242DCC
:100070000C94242D0C94242D0C94242D0C94242DBC
:100080000C94242D0C94242D0C94242D000000009D
:100090000000000000000000000000000000000060
:1000A0000000000000000000000000000000000050
:1000B0000000000000000000000000000000000040
:1000C0000000000000000000000000000000000030
:1000D0000000000000000000000000000000000020
:1000E0000000000000000000000000000000000010
:1000F00000000000000000000000000000C0000040
:1001000000000000000000000000000000C000002F
:1001100000000000000000000000000000A000003F
:10012000000000000000000000000000009000003F
:10013000000000000C00000000000000009800001B
:1001400000000000380011FC0040000000CC00005E
:1001500000000003F01190043C4000000067000024
:100160000000387FC01191FC444000000031FF00C6
:10017000000027CEC0119100464000000038010069
:1001800000006039801F91FE42400000001F818006
:10019000000040C300119088424000000010E08041
:1001A00000004186001197FF4640000000181080B3
:1001B0000000810C001190006440000000080CC099
:1001C00000008108001F90FC384000000008024039
:1001D00000018310000011040040000000080340EB
:1001E000000102100000110400400000000801603E
:1001F00000030630000010F8004000000008012055
:1002000000020C200000000000000000000801981F
:10021000000638200000000000000000000B00CCA9
:10022000000C60200000000000000000001F006EB5
:100230000019C02000000000000000000039003755
:10024000007F003000000000000000000001001FDF
:1002500001F802100000000000000000000138302A
:10026000002003900010300B0000000000016840E7
:10027000001002F0001033CB0000000000018CC021
:10028000001844000010384B0000000000010580F9
:100290000009C4000010304B000000000000050001
:1002A000000F6C00001FB04F0000000000000600AF
:1002B00000001800000030CB00000000000000002B
:1002C00000000000000FF08B0000000000000000A4
:1002D000000000000000330B0000000000000000E0
:1002E000000000000000360B0000000000000000CD
:1002F00000000000000FF00B0000000000000000F4
:10030000000000000008000B0000000000000000DA
:1003100000000000000FF0030000000000000000DB
:1003200000000000000000000000000000000000CD
:1003300000000000000000000000000000000000BD
:1003400000000000000000000000000000000000AD
:10035000000000000000000000000000000000009D
:10036000000000000000000000000000000000008D
:10037000000000000000000000000000000000007D
:10038000000000000000000000000000000000006D
:10039000000000000000000000000000000000005D
:1003A000000000000000000000000000000000004D
:1003B000000000000000000000000000000000003D
:1003C000000000000000000000000000000000002D
:1003D000000000000000000000000000000000001D
:1003E000000000000000000000000000000000000D
:1003F00000000000000000000000000000000000FD
:1004000000000000000000000000000000000000EC
:1004100000000000000000000000000000000000DC
:1004200000000000000000000000000000000000CC
:1004300000000000000000000000000000000000BC
:1004400000000000000000000000000000000000AC
:10045000000000000000000000000000000000009C
:10046000000000000000000000000000000000008C
:10047000000000000000000000000000000000007C
:10048000000000000000000000000000000000006C
:10049000000000000000000000000000000000005C
:1004A000000000000000000000000000000000004C
:1004B000000000000000000000000000000000003C
:1004C000000000000000000000000000000000002C
:1004D000000000000000000000000000000000001C
:1004E000000000000000000000000000000000000C
:1004F00000000000000000000000000000000000FC
:1005000000000000000000000000000000000000EB
:10051000000000000000000000000000000000FFDC
:10052000FF000000000000000000000000000FC0FD
:1005300000F0000000000000000000000000390092
:10054000004E00000000000000000000000033002A
:100550000063000000023F8008000000000022004D
:100560000027C00002320087880000000001E2007E
:100570000021600002323F88880000000001460030
:100580000020980002322008C80000000006440045
:100590000030C60003F23FC848000000000C4400D1
:1005A0000010C30002321108480000000020883FFC
:1005B000FFF820800232FFE8C800000000708FC002
:1005C000000810400232000C880000000060880023
:1005D0000004186003F21F870800000000C18800B3
:1005E000000418200002208008000000008108009C
:1005F000000408200002208008000000008108009C
:100600000004082000021F0008000000008108000C
:1006100000040C3000000000000000000081080011
:1006200000040C3000000000000000000081080001
:100630000004041000000000000000000041080059
:100640000004041C000000000000000000F90FFF7F
:10065000FFFC0614000000000000000000AF0800CE
:1006600000040213000000000000000000A50800C4
:10067000000C021101FC3F800000000001A50800F1
:10068000000803700104200000000000002708009B
:10069000000807D801043F800000000000060800A1
:1006A0000008036C01FC20000000000000060800A8
:1006B0000008032600203F80000000000002080020
:1006C00000080220002004000000000000020800D2
:1006D0000008020007FFFFE00000000000020C001D
:1006E00000180600000000000000000000020400E6
:1006F0000030040001FE3F8000000000000207FF00
:10070000FFD0040001062080000000000002040069
:100710000010040001062080000000000003020019
:100720000020040001FE1F00000000000003020082
:10073000002004000000000000000000000303008F
:100740000020040000000000000000000001818083
:10075000002004000000000000000000000080C035
:100760000040040000000000000000000000803095
:1007700000C0040000000000000000000000801F16
:10078000FF80040000000000000000000000C00026
:1007900000000C000000000000000000000040000D
:1007A0000000080000000000000000000000400001
:1007B00000000800000000000000000000018000B0
:1007C000180008000000000000000000000E0000FB
:1007D000300018000000000000000000000FFFFFC4
:1007E000FFFFF0000000000000000000000000001B
:1007F00000000000000000000000000000000000F9
:1008000000000000000000000000000000000000E8
:1008100000000000000000000000000000000000D8
:1008200000000000000000000000000000000000C8
:1008300000000000000000000000000000000000B8
:1008400000000000000000000000000000000000A8
:100850000000000000000000000000000000000098
:100860000000000000000000000000000000000088
:100870000000000000000000000000000000000078
:100880000000000000000000000000000000000068
:100890000000000000000000000000000000000058
:1008A0000000000000000000000000000000000048
:1008B0000000000000000000000000000000000038
:1008C0000000000000000000000000000000000028
:1008D0000000000000000000000000000000000018
:1008E0000000000000000000000000000000000008
:1008F00000000000000000000000000000000000F8
:100900000000000000000000000000000000000FD8
:10091000FFF8000300000000000000000080003825
:10092000000F000E800000000000000000C000E08A
:100930000001C018800000000000000000E00180FD
:1009400000007030800000000000000000F07E0019
:10095000000058C08000000000000000004FCC00E4
:1009600000004980E000000000000000004030006E
:1009700000000F0030000000000000000040600098
:10098000000006003000023F8008000000404000E8
:1009900000000301C00232008788000000E08000F0
:1009A0000000010F4002323F8888000000B1800043
:1009B000000001B84002322008C80000009F00007B
:1009C000000000E04003F23FC8480000008303F845
:1009D000003F80C04002321108480000008203F04E
:1009E000003F8060C00232FFE8C8000000C600007F
:1009F00000000021800232000C880000006400002A
:100A0000000000170003F21F87080000003C0000F0
:100A10000000001C0000022080080000000400000C
:100A2000000000180000022080080000000403E01D
:100A3000001F00080000021F00080000000407E07B
:100A4000003F000C0000000000000000000C0E70D1
:100A500000738004000000000000000000080FF098
:100A6000007F8004000000000000000000080FF07C
:100A7000007F8006000000000000000000080FF06A
:100A8000007F8002000000000000000000180FF04E
:100A9000007F8002000000000000000000100FE056
:100AA000007F00020001C23F80000000001007C06C
:100AB000003E000200022200800000000010000042
:100AC0004000000200023E00800000000010000014
:100AD000E000000200062200800000000010000379
:100AE000300000020003E2FFE00000000010C81622
:100AF0001F00120600008204000000000010881E83
:100B000001C012040000FE04000000000010880272
:100B100001801B040000023FC00000000010000222
:100B20000100090400000200C000000000100002E3
:100B3000030000040000FE3FC0000000001000039E
:100B40000200000C000080200000000000100001E6
:100B5000FE0000080000FE3FC0000000001800007A
:100B6000000000080000000000000000000C000071
:100B70000000001800000000000000000007000056
:100B800000000010000000000000000000018000D4
:100B90000000003000000000000000000000C00065
:100BA00000000060000000000000000000003000B5
:100BB00000000040000000000000000000001800DD
:100BC00000000180000000000000000000000E0096
:100BD000000007000000000000000000000003C04B
:100BE0000000780000000000000000000000007F0E
:100BF0000003C00000000000000000000000000131
:100C0000FFFE0000000000000000000000000000E7
:100C100000000000000000000000000000000000D4
:100C200000000000000000000000000000000000C4
:100C300000000000000000000000000000000000B4
:100C400000000000000000000000000000000000A4
:100C50000000000000000000000000000000000094
:100C60000000000000000000000000000000000084
:100C70000000000000000000000000000000000074
:100C80000000000000000000000000000000000064
:100C90000000000000000000000000000000000054
:100CA0000000000000000000000000000000000044
:100CB0000000000000000000000000000000000034
:100CC0000000000000000000000000000000000024
:100CD0000000000000000000000000000000000014
:100CE0000000000000000000000000000000000004
:100CF00000000000000000000000000000000000F4
:100D000000000000000000000000000000000000E3
:100D100000000000000000000000000000000000D3
:100D200000000000000000000000000000000000C3
:100D300000000000000000000000000000000000B3
:100D4000001C000000000000000000000000000087
:100D5000003400000000000000000000000000005F
:100D6000006600000000000000000000000000001D
:100D700000C20000000000000000000000000000B1
:100D800001820000011FC00400800000000000007C
:100D900003020001190043C47C8000000000000031
:100DA0000C010001191FC4448480000000000000F1
:100DB0001801000119100464848000000000000084
:100DC00030010001F91FE4248480000000000000CD
:100DD00040010001190884247C800000000000010B
:100DE00080010001197FF46400800000000000030E
:100DF0000001000119000644008000000000000C02
:100E000000010001F90FC385FE80000000000018FA
:100E100000010000011040040080000000000030CC
:100E200000010000011040040080000000000040AC
:100E300000010000010F800400800000000000C0DD
:100E4000000100000000000000000000000003009E
:100E500000010000000000000000000000001C0075
:100E60000001000000000000000000000000E000A1
:100E700000010000000000000000000000078000EA
:100E8000000100000000000000000000001C000045
:100E90000001000000000000000000000010000041
:100EA0000001000000002000000000000010000011
:100EB00000020001EF3E20000000000000180000CA
:100EC000000200006302200000000000000C00008F
:100ED0000006000063022000000000000004000083
:100EE00000040000633E2000000000000006000037
:100EF000000C000052202000000000000003000051
:100F000000080000522020000000000000018000C6
:100F10000018000090202000000000000000800069
:100F200000300000103FA000000000000000C000E2
:100F300000600003FF80200000000000000040006F
:100F400000400000000020000000000000006000E1
:100F500000C0000000002000000000000000200091
:100F600001800000000000000000000000003000D0
:100F7000030000000000000000000000000010005E
:100F8000060000000000000000000000000010004B
:100F90001C00000000000000000000000000100025
:100FA000F000000000000000000000000000080742
:100FB00080000000000000000000000000000FFCA6
:100FC0000000000000000000000000000000000021
:100FD0000000000000000000000000000000000011
:100FE0000000000000000000000000000000000001
:100FF00000000000000000000000000000000000F1
:1010000000000000000000000000000000000000E0
:1010100000000000000000000000000000000000D0
:1010200000000000000000000000000000000000C0
:1010300000000000000000000000000000000000B0
:1010400000000000000000000000000000000000A0
:101050000000000000000000000000000000000090
:101060000000000000000000000000000000000080
:101070000000000000000000000000000000000070
:101080000000000000000000000000000000000060
:101090000000000000000000000000000000000050
:1010A0000000000000000000000000000000000040
:1010B0000000000000000000000000000000000030
:1010C0000000000000000000000000000000000020
:1010D0000000000000000000000000000000000010
:1010E00000000000000000000000000000000020E0
:1010F00000000000000000000000000000000020D0
:1011000000000000000000000000000000000020BF
:10111000000000000000000000000000000000705F
:10112000000000000000000000000000000000209F
:10113000000000000000000000000000001B8020F4
:10114000000000000000000000000000000E000091
:10115000000000000000000000000000001B000074
:10116000000000000000000000000000001007F078
:10117000000000047F0010020000000000001C1EA0
:1011800000000464010F11F2000000000000700371
:10119000800004647F111212000000000000C000F3
:1011A000C00004644011921200000000000300001F
:1011B000700007E47F90921200000000000600001B
:1011C00018000464221091F20000000000040000E6
:1011D0000C000465FFD19002000000000004000034
:1011E00006000464001910020000000000061C0044
:1011F000030007E43F0E17FA00000000000264003D
:101200000100000441001002000000000003C400BF
:1012100001000004410010020000000000018200F3
:10122000018000043E0010020000000000000200E7
:10123000008000000000000000000000000002002C
:10124000008000000000000000000000000002001C
:10125000008000000000000000000000000003F01B
:101260000080000000000000000000000000001EE0
:1012700000800000000000000000000000000002EC
:10128000004000000000000000000000000000021C
:10129000004000407F1FF0004008000000000006F2
:1012A000004003F80104407C47C8FF000000000C28
:1012B000004002087F044044484810000000001825
:1012C0000040020C400BB047C8483C0000000070D2
:1012D0000040020C7F9110C64849C7000000001072
:1012E000004003187F8100C647C9010000000008C4
:1012F00000C001F0003FF847C008000000000007F0
:1013000000800041FFC0006C400BFF800000000324
:1013100000A00040400FF0385FE81000000000041B
:10132000018007FE40003000400810000000000C63
:1013300001000000400030004008100000000038AC
:10134000030000007F8030004008100000000060B3
:10135000020000000000000000000000000000C0CB
:101360000C000000000000000000000000000380EE
:10137000180000000000000000000000000006004F
:10138000F0000000000000000000000000000FFF5F
:1013900080000000000000000000000000000000CD
:1013A000000000000000000000000000000000003D
:1013B000000000000000000000000000000000002D
:1013C000000000000000000000000000000000001D
:1013D000000000000000000000000000000000000D
:1013E00000000000000000000000000000000000FD
:1013F00000000000000000000000000000000000ED
:1014000000000000000000000000000000000000DC
:1014100000000000000000000000000000000000CC
:1014200000000000000000000000000000000000BC
:1014300000000000000000000000000000000000AC
:10144000000000000000000000000000000000009C
:10145000000000000000000000000000000000008C
:10146000000000000000000000000000000000007C
:10147000000000000000000000000000000000006C
:10148000000000000000000000000000000000005C
:10149000000000000000000000000000000000004C
:1014A000000000000000000000000000000000003C
:1014B000000000000000000000000000000000002C
:1014C000000000000000000000000000000000001C
:1014D000000000000000000000000000000000000C
:1014E00000000000000000000000000000000000FC
:1014F00000000000000000000000000000000000EC
:1015000000000000000000000000000000000000DB
:1015100000000000000000000000000000000000CB
:1015200010000000000000000000000000000000AB
:101530001200000000000000000000000000000099
:101540001E0000000000000000000000000000007D
:101550003800000000000000000000000000000053
:10156000480000011FC004008000000000000000CF
:10157000080001190043C47C8000000000000FFC3B
:10158000080001191FC444848000000000001804F2
:101590000000011910046484800000000000600C49
:1015A000000001F91FE42484800000000360C00EE5
:1015B000000001190884247C8000000001C10003A0
:1015C000800001197FF464008000000000830000A7
:1015D000E0200119000644008000000001E2000044
:1015E000602001F90FC385FE8000000001260C0079
:1015F00040F80001104004008000000001041C00BD
:10160000C0200001104004008000000000043003EE
:10161000004000010F800400800000000004200250
:10162000004000000000000000000000000840032F
:101630000000000000000000000000000008400062
:10164000C000000000000000000000000008400092
:1016500078000000000000000000000000084000CA
:101660000C00000000000000000000000008400026
:10167000080000000000000000000000000840001A
:10168000180000F13FE0008010000000000860003A
:10169000700001990880F88F91FE0000000820007A
:1016A000C00001090880889090200000000C000113
:1016B0008000019917608F9090780000000400006E
:1016C000800000F122218C90938E0000000408001D
:1016D000E000006102018C8F920200000006000011
:1016E000300003FD7FF08F8010000000000200003A
:1016F0001C0000010000D88017FF0000000300005C
:10170000060000C11FE070BFD02000000001800073
:10171000020000C000600080102000000000800077
:10172000060000C000600080102000000000C00023
:101730000C0000FF0060008010200000000060002E
:101740000800000000000000000000000000300061
:1017500038000000000000000000000000001F0032
:10176000E00000000000000000000000000001FF99
:1017700080000000000000000000000000000000E9
:101780000000000000000000000000000000000059
:101790000000000000000000000000000000000049
:1017A0000000000000000000000000000000000039
:1017B0000000000000000000000000000000000029
:1017C0000000000000000000000000000000000019
:1017D0000000000000000000000000000000000009
:1017E00000000000000000000000000000000000F9
:1017F00000000000000000000000000000000000E9
:1018000000000000000000000000000000000000D8
:1018100000000000000000000000000000000000C8
:1018200000000000000000000000000000000000B8
:1018300000000000000000000000000000000000A8
:101840000000000000000000000000000000000098
:101850000000000000000000000000000000000088
:101860000000000000000000000000000000000078
:101870000000000000000000000000000000000068
:101880000000000000000000000000000000000058
:101890000000000000000000000000000000000048
:1018A0000000000000000000000000000000000038
:1018B000000000000000000000000000000007F031
:1018C00000000000000000000000000000000C18F4
:1018D0000000000000000000000000000000080CF4
:1018E00000000000000000000000000000000806EA
:1018F00000000000000000000000000000000802DE
:1019000000000000000000000000000000000802CD
:1019100000000000000000000000000000000801BE
:1019200000000000000000000000000000000801AE
:10193000000000000000000000000000000008019E
:101940001800000000000000000000000000080176
:101950003800000000000000000000000000080146
:101960006C00000000000000000000000000080102
:10197000440000000000000000000000000008011A
:10198000C40000000000000000000000000008018A
:1019900084000000000000000000000000000C01B6
:1019A0000400000063FC00600600000000000E015F
:1019B00084000063600C3E63E60000000000060047
:1019C0000400006363FC6666360000000000060049
:1019D000040000636300636636000000000002003C
:1019E0000C00007F63FE636636000000000002000A
:1019F0000800006361986363E600000000000200D5
:101A0000100000636FFF6360060000000000030029
:101A1000307800636000666006000000000001800E
:101A200030CC007F61FC3C6FFE00000000000180B4
:101A300020840000630C00600600000000000180AC
:101A400021820000630C006006000000000000809E
:101A50003102000061F80060060000000000008014
:101A600011020000000000000000000000000080E3
:101A700013020000000000000000000000000080D1
:101A80001E0200000000000000000000000000C076
:101A90001C020000000000000000000000000040E8
:101AA0000802000407F1FF04A4000000000000C0C9
:101AB0000002003F80104407BC00000000000060EE
:101AC0000006002087F04404A4000000000000602D
:101AD00000040020C400BB07BC0000000000006040
:101AE000000C0020C7F911000000000000000020D9
:101AF0000018003187F8100FFE00000000000020E1
:101B00000030001F0003FF804000000000000020A4
:101B1000002000041FFC0003FC0000000000003057
:101B2000006000040400FF000C0000000000001032
:101B3000004000FFE4000303FC0000000000001070
:101B400000C00000040003020000000000000008C4
:101B50000080000007F80303FC00000000000008FC
:101B600000C00000000000000000000000000004B1
:101B70000060000000000000000000000000000401
:101B8000002000000000000000000000000000062F
:101B9000003000000000000000000000000000060F
:101BA000001800000000000000000000000000021B
:101BB000000800000000000000000000000000011C
:101BC000000800000000000000000000000000010C
:101BD00000080000000000000000000000000001FC
:101BE000800800000000000000000000000000006D
:101BF000800800000000000000000000000000005D
:101C0000C0180000000000000000000000000000FC
:101C10007FF0000000000000000000000000000055
:101C200000000000000000000000000000000000B4
:101C300000000000000000000000000000000000A4
:101C40000000000000000000000000000000000094
:101C50000000000000000000000000000000000084
:101C60000000000000000000000000000000000074
:101C70000000000000000000000000000000000064
:101C80000000000000000000000000000000000054
:101C90000000000000000000000000000000000044
:101CA0000000000000000000000000000000000034
:101CB000000000000000000000000000000007F02D
:101CC00000000000000000000000000000000C18F0
:101CD0000000000000000000000000000000080CF0
:101CE00000000000000000000000000000000806E6
:101CF00003000000000000000000000000000802D7
:101D000003000000000000000000000000000802C6
:101D100003000000000000000000000000000801B7
:101D2000033800000000000000000000000008016F
:101D300000F00000000000000000000000000801AA
:101D400001E0000000000000000000000001F801B8
:101D500001800000000000000000000000030001FE
:101D60000000000000000000000000000002000170
:101D7000000000000000000000000000000300015F
:101D800000000000000000000000000000018001D1
:101D90000000000000000000000000000000C00182
:101DA0000000000063FC00600600000000007E01EF
:101DB00080000063600C3E63E6000000000002004B
:101DC0008000006363FC66663600000000000200CD
:101DD00080000063630063663600000000000300BB
:101DE000C000007F63FE6366360000000000010053
:101DF0004000006361986363E6000000000001009A
:101E0000400000636FFF63600600000000000100F7
:101E100060000063600066600600000000000100D2
:101E20002000007F61FC3C6FFE0000000003FF000B
:101E300020000000630C00600600000000020000AB
:101E400020000000630C006006000000000200009B
:101E50003000000061F80060060000000002000091
:101E60001000000000000000000000000002000060
:101E70001000000000000000000000000002000050
:101E80001000000000000000000000000002000040
:101E90001800000000000000000000000002000028
:101EA00008000000000000000000000000037FC0E8
:101EB0000800000000000000000000000001804059
:101EC0000C00003E67FE06F6000000000000004027
:101ED00004000063619807FE00000000000000603D
:101EE00004000063619806F6000000000000002076
:101EF0000600006363FC07FE0000000000000020F5
:101F00000200003E666600000000000000000020A5
:101F10000200000C60600FFF0000000000000030B5
:101F2000030000FFEFFF0060000000000000001051
:101F300001000000600003FC000000000000001031
:101F40000180003063FC000C00000000000000086D
:101F500000800030000C03FC0000000000000008BE
:101F600000C00030000C030000000000000000046E
:101F70000060003FE00C03FE0000000000000004D1
:101F8000002000000000000000000000000000062B
:101F9000003000000000000000000000000000060B
:101FA0000018000000000000000000000000000217
:101FB0000008000000000000000000000000000118
:101FC0000008000000000000000000000000000108
:101FD00000080000000000000000000000000001F8
:101FE0008008000000000000000000000000000069
:101FF0008008000000000000000000000000000059
:10200000C0180000000000000000000000000000F8
:102010007FF0000000000000000000000000000051
:1020200000000000000000000000000000000000B0
:1020300000000000000000000000000000000000A0
:102040000000000000000000000000000000000090
:102050000000000000000000000000000000000080
:102060000000000000000000000000000000000070
:102070000000000000000000000000000000000060
:102080000000000000000000000000000000000050
:102090000000000000000000000000000000000040
:1020A0000000000000000000000000000000000030
:1020B0000000000000000000000000000000000020
:1020C000380000000000007E000000000060FFC13A
:1020D00080000000F1C7E7E0000000FF807FE00023
:1020E0000001FF003E70000003CE003C30000007FE
:1020F0008400083000000F8000003000000F000056
:10210000003000000C0000003800000C0020009C93
:1021100000000C00E001CC00001C00E001CE00003B
:10212000382000000E0000702000000F0000E000CA
:102130000000078001CC0007E003C0039C0007E01B
:1021400001E003DE0C07E000E003DE0F0001E070B9
:1021500007FF8E0001E07007FFC4000000E003F3FA
:10216000C0000000C003C3C0000000C001F7C000F1
:102170000001C000FFE1E003C3C0003FF0C0008FDA
:1021800000001FF000000E00001FF000400E0000D5
:102190007BF00000070000F3F8000003C000F1FC32
:1021A000070031C000381E000073C0001C1F8003F0
:1021B000FF80000F0FF003FE00000707FE0038004D
:1021C000000307FF9C300000038FFFFE300000017A
:1021D0009F707FF0000001FBF8E1E0000000F1FDDE
:1021E000C000000000600F8000000000000F8000B1
:1021F00000000000070000000000000000000000D8
:1022000000000000000000000000000000000000CE
:1022100000000000000000000000000000000000BE
:102220000000000000000000000003F00F80C0006C
:10223000000FFF07C0C000003E1FC0E1C00000F05B
:1022400001F0E7C00001E00078FFC0000380001F3C
:10225000F1E0000700001F00E0000E00000E00602B
:10226000001C00000E0060001800000C38600030F8
:1022700001F81C3860003003FE1878600030070F4A
:1022800018786000600E039878E000601C01987078
:10229000C000603801F870C000607800F0E0C00055
:1022A000607000F0C1C000607000F0C1800060F09C
:1022B00011F0C1800060F019E0C1800060F01FE003
:1022C000C0000060F01FE1C3000060F80EE187006D
:1022D0000060F800C3860000607800C30E00007044
:1022E0007801C70C0000307801861C0000307C03A8
:1022F00086380000187C030C300000183E070C7074
:1023000000001C3E060CE000000C3F061CC0000054
:102310000E1FEE19C00000061FFC19800000070FF9
:10232000FC1B800000030FF81B0000000387F83F30
:102330000000000187F83E00000001E3F87E000085
:102340000000FBF0FC000000003FF0F8000000007F
:102350000FE0F80000000003C0F00000000001C022
:10236000E0000000000181C0000000000183800047
:102370000000000F9F00000000001FFC0000000094
:10238000000FF0000000000000000000000000004E
:10239000000000000000000000000000000000003D
:1023A00000000000000000000000000001FF00002D
:1023B0000000007FFFC000000001FF0FF0000000E0
:1023C00003C00FF800000007000FFC0000000E0320
:1023D00007EE0000001DF300060000001FFB0007D1
:1023E0000000003BF0000300000037F0070300008E
:1023F0000037E0078300000073C007C300000071CE
:102400008003C300000030000083000000300000A3
:1024100007000000300006060000003060640E0077
:10242000000038F0780C00000018F03C18000000A4
:102430001C707E380000000C70467003E0000C3009
:1024400040E007F0000E0000F00E70003F0000FCBE
:102450000C70003F8001FE0CF0003000000FDCE04B
:10246000003FC03FFFFDC0003FFFFFFFFD80007F3A
:10247000FE3F07FDC000E21C000FEEC000E78E3EED
:102480000FE6E000FF9E3F07F670007F9F3383BF9B
:1024900030003F9F73C39B30001DFBF3E79C30006F
:1024A00039FBFBFF8C300031FBB9FFCC300039B970
:1024B00098CCCE30001FB99CCCC630000FD9CEECE2
:1024C000C670000FDCE66C66600006CE666C67E0E6
:1024D000000EC6766C67C0003CC6666C638000F96F
:1024E0008E666C600001E38C6E6C600001CF1CDCBA
:1024F000FC6000019C19D8F86000019819D8F860B8
:102500000001981CDCFC600001980CCCCCE00001C0
:10251000D80FCECEC00000D80787C6C00000F8078D
:102520000787C000000000000000000000800000DD
:10253000FE000001800C01FFC00001821C61DFF081
:102540000007873C619FF800070F78619C3C000EF4
:102550001E70FF8038001C3EF1FFE07800387CFFE1
:10256000F8E07000307CFF3C60380070F9F80EFF36
:10257000780060F9FC0FFFF000E1FFFE0781C0006A
:10258000C1FF070F000001C1F8030FC0000181FC6B
:10259000031F80000300FF831800000301C7C33836
:1025A0000800060380E3307E00060700637FFC001E
:1025B000060F0063FFFC000E3FC067FFF8000CFF32
:1025C000E077FFF0000CFEF07E0000000CC7387EC4
:1025D00000F0001D839C7FFFF0001981FE7FFFF05B
:1025E000001B80FFECFF00001B003FCE7C00001BA7
:1025F0000001C7F000001F0000E3C000001F400002
:10260000C01800001FE001C01800001F0001803842
:1026100000000E0C03803000000E0C07007000005C
:102620000F001E0060000007007800E0000003C3F8
:10263000F000C0000001FFC001C0000000FE000368
:1026400080000000E000070000000060001E0000A5
:102650000000600038000000007000F00000000082
:102660003C03E0000000001FFF800000000007FEA8
:10267000000000000000000000000000000000005A
:10268000000000000000000000000000000000004A
:10269000000000000000000000000000000000003A
:1026A000000000000000000000000000000000002A
:1026B000000000000000000000000000000000001A
:1026C000000000000000000000000000000000000A
:1026D00000000000000000000000000000000000FA
:1026E00007C000000000007FFF8000000001FC7FA9
:1026F000C000000007C000F00000001F00007000D4
:1027000000003C00003800000070000018000000CD
:10271000E000001C000000C000000C000001C00030
:10272000000C0000018000000C00000381F0001C80
:1027300000000307FC00187000070FFC0038F000D1
:10274000061FFE0031F0000E3FFE003F98001C3FC8
:10275000FE003E1800387FFE00181800703FFC0095
:1027600000181FE33FF80000181F839FF0000018B7
:1027700038031FE0001E1838000070003FF83FE0EB
:10278000007E003BF81FF8001F803870003C0003FB
:10279000801C00000F0001800C00000787FF800EE6
:1027A000000001E3FF000E000000F000001C00002C
:1027B00000FC000078000000FF8007F000000077B8
:1027C000FFFFC000000031FFFC000000003B0140A3
:1027D000000000001F0000000000000F00000000CB
:1027E00000000400000000000000000000000000E5
:1027F00000000000000000000000000000000000D9
:1028000000000000000000000000000000000000C8
:1028100000000000000000000000000000000000B8
:1028200000000000000000000000000000000000A8
:10283000000000000000000000E0000000000001B7
:10284000FF800000000003BF8000000001FF01C006
:1028500000000003FF00C0000000070E00C00000E1
:102860000C1F0010C000003E1C003EC000007F187E
:10287000003FE00000E378003FE0007FE7FC0C3F12
:10288000F000FFC67E0C3FB001C1CE760E3FB8030C
:1028900081FC77060F1807007CE3820E3806001DC6
:1028A000E3C00C300E000FC1C000300C0F07C3C0D6
:1028B00000301C1FC067C03070183BE0678070603C
:1028C0001837707F8070601C37303DC0E0601C3767
:1028D0003039E0E0E01E323839FC08C03E30303993
:1028E000BE0FC03F3C707F8E0F803F9FF0FF0606FB
:1028F000003F87C3FC0606003FC007FC0606003FFA
:10290000F8FEEC0E06003FFFFCCE1C07003F878060
:10291000C7F803003F8001C3F183003DE003C0130B
:1029200083003CF00F801F87001C381E001F8600AC
:102930001E1C1E001F86001E0E3E000F8E001F076D
:10294000FF001F8C000F83FF007F0C000FC0FF8073
:102950007E1E000CE07F00701F800C701E00003F88
:10296000C00C3800000077C00C1E000000FF80067D
:102970000F000001FE000703E00003F8000300FC65
:10298000001FF00003C03FF07CE00001F01FFFF8E3
:10299000C000007C042FF1C000001FFFC07F80003A
:1029A0000007FFE1FF0000000002FFC00000000080
:1029B000003E0000000000000000000000001C3885
:1029C00017E8100A100A181A0C321FFE166C366C23
:1029D00027E43CFC0E740BD40E740000010003804D
:1029E00002F00410085C080C0808041003E07D5095
:1029F0004778762817F81FF0014001C0008001C019
:102A00000F4008203A103090109008A007C00ABE6E
:102A10001FE2156E1FE80FF80380038000001C38CA
:102A200017E85008524859984C307FF83668324CB5
:102A300027E43DBC2FF02A502E700000000000005B
:102A4000000000000000003F000000000000000047
:102A5000000000000000007FC00000000000000037
:102A60000000000000000071F00000000000000005
:102A700000000000000000307C00000000000000AA
:102A800000000000000001F81FC00000000000006E
:102A900030000000000007F80FF000000000000008
:102AA000FE00000000001F00007C0000000000038A
:102AB000FF80000000003C00001E00000000000F2E
:102AC00083E0780000007000000700000000001E96
:102AD00000FFF000F800E000000380000000001894
:102AE000003FC000F801C000000187C000000000E6
:102AF00001F00001DC01800000619FFC000000008B
:102B000003F80001980380000061987C0000000039
:102B100003FC0001F80700000001C01800000000DD
:102B2000037E0181F00603FF0000E00000000000CA
:102B3000071F07E0E00E0FFF00007000000000001C
:102B4000060F87F0E3FC1E3C000038000000000088
:102B50000607E7F06FFC38383E0018000000000060
:102B60000E03F3FC0E007038FFE01C0000000000B4
:102B70000C01F8FE0C00703FE3FF8C000000000029
:102B80000C00FC000C00301F003FFC00380FF80068
:102B90000C007E000FFC3800000FFC007FFFF800E7
:102BA00018003F0F07FF18000007E0002FF8000093
:102BB00018003F8FC007F8000000000001800000EF
:102BC00018001FCFE001F800000000000000000026
:102BD00038001FC7F00000000000000000000000E7
:102BE00030000FE3FC0000000000000000000000C7
:102BF00030000FF07C000000000000000000001812
:102C0000600007F000000000000000000000003C31
:102C1000600007F8000780003C0000000000003C56
:102C2000E00003FC000FC07FFF8000000000007E7A
:102C3000C00003FC001CFFFFE780000000000077DD
:102C4000C00001FC00383FC38000000000000067A6
:102C5000C00001FE00200000000000000000006332
:102C6000C00001FF0000000000000000000003E3BE
:102C7000CFC000FF000000000000000000FC07F1D2
:102C8000FFC000FF800000000000000000FF0FF9FF
:102C9000FB80007F8000000000000000007F0CF837
:102CA000C380003FC000000000000000003C0D9CFD
:102CB0000700003FC000000000000000000E0C0CE8
:102CC0000E00001FE000000000000000000E1C18B5
:102CD0000C00000FE000000000000000000E7FF874
:102CE0001C00000FF000000000000000001CF7F0C6
:102CF0001FC00007F0000000000000000038C700FF
:102D00001FE00007F80000000000000000F0CE0007
:102D100030E01FF7F87F00000000000000FDCE004B
:102D200030E01FFFFCFFC0000000000000FFCE00ED
:102D30003FC0101FFDC1C00000000000000F9C003C
:102D40003F800003FE00000000000000000FDC00D8
:102D500038000001FE00000000000000000CDC0054
:102D600070000001FE000000000000000000FC00F8
:102D700060000000FF000000000000000000F830CC
:102D800060000000FF000000000000000000F8F8F4
:102D900060000000FF000000000000000000F9FCDF
:102DA0007E000000FF000007C0038000000FE38FDB
:102DB000FFB00000FF00001FE00FE01E000FFF0744
:102DC000F3F00000FF0000087CFEF07F00007E01B1
:102DD00080E00000FF0000001FF83FF000001C0032
:102DE00000000000FF00000007801FE0000000005E
:102DF00000000000FF0000000000030000000000D1
:102E000000000000FF0000000000000000000000C3
:102E100000000000FF0000000000000000000000B3
:102E200000000000FF0000000000000000000000A3
:102E3000000000007F800000000000000000000093
:102E40000000000000000000000000000000000082
:102E500000000000000000060000000000040180E7
:102E600000000000000000FF00000000000F81E0F3
:102E700000000000000003FE0003E0000007E1F88E
:102E8000000000000000079E600FF8000003F8FC3F
:102E90000000000000000E1FF81C3C000001FCECCC
:102EA0000000000030001C3FF8380C000000CEEE9F
:102EB000000000007C00183C703006000000C7E6EF
:102EC000000000007F001818607007000000C3E7D2
:102ED000000000000FC01800E0E003000000C1E3A4
:102EE0000000000003C01800E3E000000000C0C2C2
:102EF00000001FF801E018007F8000000000C00003
:102F00000000FFFF806038007E0000000001980094
:102F1000003FFFFFE0601000000000000003980089
:102F200000FFFFFFFC00000000000000001F380051
:102F300003FF07FFFF00000000000000003C7000DE
:102F400003C0000FFF8000000000000000006000D0
:102F500007000001FF800000000000000000E0000A
:102F60000E0000007FC00000000000000000000014
:102F70001C0000003FF00000000000000000000006
:102F8000380000003FF000000000000000000000DA
:102F9000700000003FF18000000000000000000011
:102FA000E001F00FFFF780000000000000000001CA
:102FB000C003F81FFFFF0000000000000000000336
:102FC00080011C383FF800000000000000000007EE
:102FD00000000E700BF003C0000000000000000EA7
:102FE000000007E001F007F0000000000000001CF6
:102FF000000003C001F00E7E7800000000000038E1
:103000000000000001F00E7F7F0000000000007053
:103010000000000001F00FF03FC00000000003E0DE
:103020000000000001F007C00FF0000000000FE1F9
:103030000000000061F1000007FC000000003EF30A
:10304000C000000061F18000039E0000000678F7D8
:10305000C0000000E1F1800001870000000FE3FFE5
:10306000C0000001E3F1800000C30000001FC3FEA8
:10307000FE000007C3F1800000C38000003FE39C16
:10308000FF80000703F18001FFC18000003FE78C53
:10309000F3C0000703F18003FFC18000007F778C3D
:1030A00060C0000707F18001F3C0C000007F77CF48
:1030B00090E0700707F180003880C000007677CF7D
:1030C000F0E1FC0E0FF180E01800C0000038E1CE06
:1030D000F0C3DC0E0FF183F01800C000003FC00EFB
:1030E00001C30C0E1FF003B81C00FFE3001F801E7D
:1030F00007870C0C1FE0071C1800FFFF0FF8001FCC
:103100001E063C0C3FE0060E1800703F0FF8007FD3
:10311000380FF80C7FC00C07F80000001C37C0F314
:10312000380FE01C7F800C03F00000000C37F3F335
:10313000180780187F800800000000000C63F7B7B4
:1031400018000038FF000000000000000C63E707D3
:1031500018000030FF000000000000000E67E39E32
:10316000180FE000FF000000000000000C63C3FC2B
:10317000187FF801FE000000000000001C6381F8C9
:1031800039FE3801FE000000000000001C7E03C074
:103190003FFE1C01FE000000000000003CFF0FE0AD
:1031A0003F07FC03FC000000000000003FE3FCF0D0
:1031B0003C03F803FC000000000000001F80F8380A
:1031C00078006007F8000000000000000000703F79
:1031D000E000000FF8000000000000000000000FF9
:1031E0008000000FF0000000000000000000000060
:1031F0000000001FF00000000000000000000000C0
:103200000000003FE000000000000000000000009F
:103210000000007FE000000000000000000000004F
:103220000000007FE000000000000000000000003F
:103230000000007FC000000000000000000000004F
:10324000000000000000000000000000000000007E
:103250000000000000000000000000000000000767
:10326000F800000000000000000000000000001F47
:10327000FE000000000000F0000000000000001E42
:103280000F0000003FFFFFFFF80000000000003EBD
:10329000038000003FFFFF9FF8000000000000FED9
:1032A00001C000000000000000000000000001F06C
:1032B00030C0000000380000000000000000018065
:1032C0003CC00000007C000FC00000000001F38E35
:1032D00008E000000000000FE00000000007FF0E03
:1032E00000E000000000000000000000000F7F80F0
:1032F00000E000000000000000000000001C6180F1
:1033000000E7001F00000300000000000019FDFEA0
:1033100000FFC03F800007C000000000003BCEFF60
:10332000007FE03180001F8000000000003B06E3CA
:103330008000783180007F8000000000003F07C3DC
:10334000FFFFFC678000FF800000000000FF06C355
:10335000FFFFFC7F0001FF800000000001E706C3C3
:103360003FEFFEFC0003F9800000000001C30EC324
:103370003FE7FEF00007F98000000000038306C36A
:103380003FC7FC60001FF18000007FC0038306C3BD
:103390003FC7F800003FE1801F81FFE003030EC339
:1033A0007FC3F800007FC180FFFFC07C03038FE371
:1033B0007FC3F83E00FF8181F0FF003C03818FE76F
:1033C0007FC3F8FF01FF0181800800000181DF7EDB
:1033D0007FC3F9E303FF01C00000000001C1FF3C0F
:1033E0007FC3F38307FE00C00000000000E1FF0080
:1033F0007FC3F3070FFC00C00000000000F1FF00D6
:103400003FC1E3FE1FF800C000000000003FFF00C6
:103410003F87C3FC3FF000C000000000001FFF001A
:103420003FFF81807FE000C000000000003FFFFF01
:10343000FFFFF800FFC000C000000000007FFFFF9A
:10344000FFE7FF00FF8000C000000000007FFFFFDB
:10345000FFE71F01FF0000FE000000000000E03C4D
:1034600000000003FE0000FF8000000000000000DC
:1034700000000007FE000071800000000000000056
:1034800000000007FC0000F5F01E00000000000036
:103490000000000FF80000F5F8FF00000000000039
:1034A0000000001FF00003F1FFE300000000000037
:1034B0000000001FF00003FFFFC300000000000039
:1034C0000000003FE00007FFB7C3800000000000DD
:1034D0000000003FC00007FFB7E3C000000000008D
:1034E0000000007FC00007C7A770E00000000000D8
:1034F0000000007F80000F83FE38E0000000000025
:10350000000000FF00000F80F81CC0000000000059
:10351000000000FFBF800FE0000FC00000000000AF
:10352000000001FFFFC00EE00007C00000700000B7
:10353000000001FFE00006000C07C00000FE7C1F39
:10354000E00001FE000007003C03C00000CFFFFFC9
:10355000F80001FE00000387F803C0000003C7F075
:10356000300003FC000001C7E603C03F000000007C
:10357000000003FC000001C1C703FFFF00000000C2
:10358000000003FC000000C1FF03FFE0000000009A
:10359000000007FC000000E0FE03F0000000000057
:1035A000000007FC00000FF1FFFFF000000000002A
:1035B0003E0E07FD80000FFFFFFF300000000000FF
:1035C0003FFFE7FFC000001FF07000000000000098
:1035D00043FFE7F8000000000000000000000000CA
:1035E000C0C007F80000000000000000000000005C
:1035F000000007F8000000000000000000000000CC
:10360000000007F8000000000000000000000000BB
:10361000000007F8000000000000000000000000AB
:10362000000007F80000000000000000000000009B
:10363000000007F80000000000000000000000008B
:10364000000000000000000000000000000000007A
:1036500000000000000000000000000000700000FA
:1036600000000000000000000000000000F8000062
:1036700000000000000000000000000001F8000051
:1036800000000000000000000000E00003B800009F
:103690000000000000000000F001F0000730000012
:1036A0000000300000000001FC01F80006300000BE
:1036B0000000FFE000000003DC019C000630000079
:1036C0000003FFF8000000070E038E0006300E0016
:1036D000000FFFFF0000000E070787000E383F8035
:1036E000001FFFFFC000000603FE03800C1FFB80CD
:1036F000203FFFFFF000000001FC01800C0FE1C142
:10370000E07FFBFFF8000000006001C0000000FF48
:10371000C0FFE00FFC00000000000000000000FF00
:1037200001FFC001FE0000000000000000000000DA
:1037300001BFC0003F0000000000000000000000CA
:10374000033EE0000FC00000000000000000001F6A
:10375000830CFC0007E00000000000000000007F78
:10376000C76CF80001FC000000400000000000F001
:10377000E6FCF800003F000003F80000000001C074
:1037800076F9F0000007C00007FC0000000003838A
:103790003FFFE0000001F000070C00000000030301
:1037A0001FFFE00000007C00038E00000000000707
:1037B0000FF9C00000001F0001E600000000000338
:1037C0008FF8C000000007C000F6000000000001F4
:1037D000CFF80000000001F00038000000000000F9
:1037E000CFF803E00000007C00180000000000009B
:1037F000CFF803F80000001F0008000000000000E0
:10380000CFF803FC00000007C0000000000000002B
:10381000C7F803FE00000001F00070000000000087
:10382000C7F800FE000000007C00780000000000E7
:10383000C7F80004000000001F003E000000000068
:10384000C7F8000007C0000007C01F00000000000C
:10385000C7F800000FE003FFFFF00F0000000000BA
:10386000C7FC3FC00C700FFFFFF80780000000008E
:10387000C3FC7FC08C381E003FFE038000000000A8
:10388000E3FC78FCCE1C78003FFF83C800000030CA
:1038900001FE3FFFC78EF00333FFC3FC0000007C36
:1038A00001FE1FE0C1C7C007333FF3FC0000003E2C
:1038B00000FF0000C0E380FE383FFF7E0000001FD5
:1038C00080FF0000C1C000FE1C3BFF3E0000000F57
:1038D000C07F0004E78001CE1FF3FF3F0000000F10
:1038E000E07F800FFF0001CE07FFFE3B00000006D7
:1038F000707D800FFF0000FE03FFFC3B0000000610
:10390000387FC007FF80007E00FFF831000F803E47
:10391000183FC00381E1F000083FF801003FC03EBE
:103920001C3FE001C0F7FC003C39F0030078E03EAA
:103930000E1FE000E00F1F00FE71E0030060603E1C
:10394000061FF000781C0781E7E1C00300E0703E2D
:10395000060FF8003FFC01FF83C0000001C03C706F
:10396000060FF8000FF800FF0000000001801FE0C4
:103970000607FC000000000000000000010007C076
:103980000003FC0000000000000000000000000038
:103990000001FE0000000000000000000000000028
:1039A0000001FF0000000000000000000000000017
:1039B0000000FF8000000000000000000000000088
:1039C0000000FFC00F000000000000000000000029
:1039D00000007FE01FC000000000000000000000A9
:1039E00000003FF039F0000000000000000000007F
:1039F00000003FF870E00000000000000000000040
:103A000000001FFC0000000000000000000000009B
:103A100000001FFE00000000000000000000000089
:103A200000000EFE0000000000000000000000008A
:103A30000000067F0000000000000000667E7E7E21
:103A40007F7F7F7F7F1111111153BBB93C3C3C3C00
:103A50003C363E3E3E111111117FFF9F1C000000BD
:103A600000000000000000000000000E62000000E6
:103A700000000000000800044400001141000000A4
:103A8000000000000011111111800020430000000F
:103A9000000000000011111111000031450000006C
:103AA0000006060607000000000000284100000094
:103AB0000007070787880000440000206600000018
:103AC0000007070707911111118000397E000000DF
:103AD00000070707079111111100001F1C000000CB
:103AE00000606020200000000000000E22000000A6
:103AF00000707070780000000400001141000000A8
:103B000000707070781111111180002043000000C6
:103B1000007070707011111111000030450000002C
:103B2000000000000000000000000029410000002B
:103B300000000000000000000000002067000000FE
:103B40000000000000111111118000397E000000FA
:103B500000000000001111111100001F18000000EA
:103B600000000000000000000000000E2200000025
:103B700000000000000000000000001141000000F3
:103B800000000000000000000000002043000000D2
:103B900000000000000000000000003045000000B0
:103BA00000000000000000000000002941000000AB
:103BB000000000000000000000000020470000009E
:103BC0000000000000000000000000387600000047
:103BD00000000000000000000000001B18000000B2
:103BE00000007D00000000000000000E2600000024
:103BF00000007F800000000000000019410000006C
:103C000000007F8000000000000000204100000054
:103C1000000080800000000000000020450000003F
:103C200000008080800000000000442941C666003A
:103C3000000080E333633363336119A047A6670054
:103C400000007FB333533353335399B876FFFF00EB
:103C5000000002FFFFFFFBF7FFFFFF9B18BCCC003B
:103C60000000019CCCBEEE8EEE8E660E640000005D
:103C700000080000000000000000001346000033B0
:103C80001199110000000011119998A1C60000229D
:103C90002233310000000011111111234E000000E9
:103CA000000000000000000000000037FF000000DE
:103CB00000000000000000000000007FFE00003156
:103CC000999999000000001111998CBF7E00002283
:103CD00022333100000000111111113B38000000A7
:103CE00000000000000000000000000E6400000062
:103CF0000000000000000000000000124600001953
:103D000099999900000000111114CCA1C60000225D
:103D10002333310000000011111111234E00000265
:103D2000222222000000000000001137FF000000E6
:103D300000000000000000000000007FFE000008FE
:103D400088899900000000115544447F7E000022BC
:103D500023333100000000111111113F38000022FF
:103D600022222200000000011111110E6C0000003F
:103D7000000000000000000000000012462A8888B1
:103D8000890000000019915554800011C62222229A
:103D90003300000000111111110000234E222222D5
:103DA000220000000022311111000037DF00000066
:103DB0000007070000000000000787F7FEA88888BA
:103DC0008807070000199D55448383FF7E22222225
:103DD0003307070000111111110383BF3C62222237
:103DE00022070700002333331103838E2C000000C9
:103DF00000F07000000008000078781246A888885B
:103E000088F07000005DDDD544783811C622222389
:103E10003370700000111111113838234E6666227C
:103E2000227070000033333333383837DF0000003E
:103E30000000000000000800000000770000000003
:103E40000000000000000000000000000000000072
:103E50000000000000000000000000000000000062
:103E60000000000000000000000000000000000052
:103E70000000000E00000000000000000000000034
:103E80000000003E000000000000000000000000F4
:103E90000000003E0000000003E000000000000001
:103EA0000000001E000000000220000000000000D2
:103EB0000000000F006007FF8460000000000000A9
:103EC0000000000780D008006C7C000000000000AB
:103ED0000000000385CCE00018F4000000000000A2
:103EE000000000038267C00011E200000000000033
:103EF00000000001C212000013C300000000000017
:103F0000000001F9021600000F818000000000008F
:103F1000000003F8030C00000C3EE000000000006D
:103F2000000001F0030E000003E3E00000000000C9
:103F300000000000067400000003C0000000000044
:103F4000000000000E081F1F00030000000000001A
:103F5000000000000C081101000600000000000035
:103F60000000000007080000000C00000000000036
:103F70000000000000B81C0E000800000000000057
:103F80000000000000F83E3F0008000000000000B4
:103F90000000000000082737800C0000000E000021
:103FA0000000000000086737800C00000039800026
:103FB0000000000000086F3F800C000000E0C1F826
:103FC00003F8000000087F1F800C000003006F0949
:103FD000CE0C000000383F1F800800000800380F9A
:103FE0005802000000601C0E040800000800000CCD
:103FF0007002000000C5800036080000780000183C
:1040000060020000008480E0121000004000000008
:1040100000020000008C9DB1903C000040000000B8
:10402000000600001FC0070F007FC0004000000016
:104030000004000039E0030C00F1700040000000B3
:1040400003FC00002E7801F80360E000400000004F
:1040500002000000783C00000DC18000400000001C
:1040600002000000700E00003B0300007020000002
:10407000060000007F83FC0FF20E00001FF000E03E
:104080000400000000C0FFFE0C1C0000001000B087
:104090000800000000C0000006F000000010031F30
:1040A000F800000000FF80F0040000000010020093
:1040B0000000000000008F18040000000018060037
:1040C000000000000000860804020000000FFC0051
:1040D0000000000000008338C60600000000000059
:1040E00000000000000082A882160000000000000E
:1040F0000000000000004F0F86C20000000000001A
:104100000000000000007F9C03020000000000008F
:104110000000000000009E180002000000000000E7
:104120000000000000009F380002000000000000B6
:1041300000000000000091E8000600000000000000
:1041400000000000000090080004000000000000D3
:1041500000000000000090080008000000000000BF
:10416000000000000000980C001800000000000093
:104170000000000000005F48003000000000000068
:1041800000000000000049F801C00000000000002D
:104190000000002F1C006808030000000000000061
:1041A00000000037F9C018080400000000000000FB
:1041B00000001FE000E01F080800000000000000F1
:1041C00000002000003F0EF8080000000000000082
:1041D000001FE0000001FC087FF00000000000006C
:1041E000003000000001FFFFFFF0000000000000B1
:1041F000002000000001C00001F0000000000000ED
:10420000002000000001C00001F0000000000000DC
:10421000000000000000000000000000000000009E
:10422000000000000000000000000000000000008E
:10423000000000000000000000000000000000007E
:10424000000000000000000000000000000000006E
:10425000000000000000000000000000000000005E
:10426000000000000000000000000000000000004E
:10427000000000000000000000000000000000003E
:10428000000000000000000000000000000000002E
:10429000000000000000000000000000000000001E
:1042A000000000000000000000000000000000000E
:1042B00000000000000000000000000000000000FE
:1042C00000000000000000000000000000000000EE
:1042D00000000000000000000000000000000000DE
:1042E000000000000000000000000000000C7F80C3
:1042F0000C7F8000033C00003C0000000C6C018738
:10430000CC01807F833C7FC33C3F80000C6C7F8C62
:10431000CC7F80019FFC0C033C6180000C6C600C26
:104320006C600001803C1E033C60C0000FEC7FCC41
:104330006C7FC0018FBC7383FC6180000C6C330CFC
:104340006C0000018CFDC0C73C7180000C6DFFEC5F
:104350006DFFE1FFECFC000FBC3F00000C6C000C9B
:10436000CC7F800C0DFDFFECFC3300000FEC3F8791
:104370008C01800C073C0C18FC330000000C6180A1
:104380000C7F800C003C0C003DFFE000000C6180C5
:104390000C60000C003C0C003C000000000C3F00D6
:1043A0000C7FC00C000C0C000C0000000000000092
:1043B00000000000000000000000000000000000FD
:1043C00000000000000000000000000000000000ED
:1043D00000000000000000000000000000000000DD
:1043E00000000000000000000000000000000000CD
:104680000000000000000000000000000C300303E8
:10469000000F000300300000000000003F33F33F34
:1046A000F3EF03EF3FB000000000000033303F00A5
:1046B000036F03EF0C3000000000000031B0330F37
:1046C000C63F03EF0E3000000000000033306F18CB
:1046D000663F03FF8E300000000000003F31C3182A
:1046E000663F03EF1BB00000000000000C33030C1A
:1046F000E66F03EF71B000000000000000307C079F
:10470000836F03EF00300000000000000C00C703BF
:1047100001CF03FF0C000000000000000C00C37F6D
:10472000F80F00030C000000000000000C00C300A4
:10473000000F00030C000000000000000FF07E00DE
:10474000000300030FF00000000000000000000064
:104750000000000000000000000000000000000059
:104760000000000000000000000000000000000049
:104770000000000000000000000000000000000039
:104780000000000000000000000000000000000029
:104790000000000000000000000000000000000019
:1047A0000000000000000000000000000000000306
:1047B00000180018FF001800000000001F1FF9FB80
:1047C0000F9818D8030F9800000000003181801B5B
:1047D00018D818D8FF1998000000000031818019FE
:1047E000D8D818D8C018D800000000003183C033D2
:1047F00018D81FD8FF98D80000000000338E70E34F
:104800000F9818D86618D800000000001F981B8366
:10481000001818DBFFD8D800000000000D8180FFD1
:10482000001818D8001998000000000018818003B3
:104830003FF81FD87F0F18000000000010BFFC03D6
:1048400000180018C3001800000000001900000341
:1048500000180018C3001800000000000F0000033B
:10486000001800187E001800000000000000000082
:104870000000000000000000000000000000000038
:104880000000000000000000000000000000000028
:104890000000000000000000000000000000000018
:1048A0000000000000000000000000000000000008
:104B40000000000000000000000000007FE0060000
:104B50006006000000000000000000006C67E67FB7
:104B60006186000000000000000000006DE666188D
:104B70006186000000000000000000006C66661BFB
:104B8000E186000000000000000000007FE63E1803
:104B900061BE000000000000000000000066661F0B
:104BA000E1C6000000000000000000000006663EB4
:104BB00063E6000000000000000000001FE66667DA
:104BC0006676000000000000000000000063C6C31D
:104BD0006C36000000000000000000001FE006002E
:104BE0006006000000000000000000001800060041
:104BF0006006000000000000000000001FE006004A
:104C0000600600000000000000000000000000003E
:104C10000000000000000000000000000000000094
:104C20000000000000000000000000000000000084
:104C30000000000000000000000000000000000074
:104C40000000000000000000000000000000000064
:104C50000000000000000000000000000000000054
:104C6000000000000000000000000000000000063E
:104C70000006030003006000000000003E3FF3F662
:104C800003060303033F60000000000063030036D7
:104C90000306078303306000000000006303003355
:104CA00083079CE303306000000000006307806618
:104CB000031E703303307800000000006704E1C673
:104CC00001F67FFB03306000000000003F0837065C
:104CD0000000000303306000000000001D9B01FE87
:104CE00000C618630F31E0000000000030830006AA
:104CF00000C61863FB3F60000000000010BFF8060C
:104D000000EE1FE0030063330000000010B0000657
:104D100001BF186003006333000000001380000629
:104D200003319FE003006000000000001F0000004E
:104D30000000000000000000000000000000000073
:104D40000000000000000000000000000000000063
:104D50000000000000000000000000000000000053
:104D60000000000000000000000000000000000043
:104D70000000000000000000000000000000000033
:104D80000000000000000000000000000000000023
:104D90000000000000000000000000000000000013
:104DA0000000000000000000000000000000000003
:104DB00000000000000000000000000000000000F3
:104DC00000000000000000000000000000000000E3
:104DD00000000000000000000000000000000000D3
:104DE00000000000000000000000000000000000C3
:104DF00000000000000000000000000000000000B3
:104E000000000000000000000000000000000000A2
:104E10000000000000000000000000000000000092
:104E20000000000000000000000000000000000082
:104E30000000000000000000000000000000000072
:104E40000000000000000000000000000000000062
:104E50000000000000000000000000000000000052
:104E60000000000000000000000000000000000042
:104E70000000000000000000000000000000000032
:104E80000000000000000000000000000000000022
:104E90000000000000000000000000000000000012
:104EA0000000000000000000000000000000000002
:104EB00000000000000000000000000000000000F2
:104EC0000000000000000000000000000018FF1FAC
:104ED000B00780030C0000000000000018D8031881
:104EE00031F780630C0000000000000018D8FF18A4
:104EF0001DB780630C0000000000000018D8C01F20
:104F0000B31F80630C000000000000001FD8FF9852
:104F1000331F8063C7F800000000000018D8661F28
:104F2000F31F8073000000000000000018DBFFC0CA
:104F3000033780FB3FFC00000000000018D8000C85
:104F400031B7819F00000000000000001FD87F0FD4
:104F5000F0E7830F0C000000000000000018C30CF5
:104F6000300780030C000000000000000018C30C94
:104F7000300780030C0000000000000000187E0FC6
:104F8000F00180030FF800000000000000000000A6
:104F90000000000000000000000000000000000011
:104FA0000000000000000000000000000000000001
:104FB00000000000000000000000000000000000F1
:104FC00000000000000000000000000000000000E1
:104FD00000000000000000000000000000000000D1
:104FE0000000000000000000000000000018FF00AA
:104FF00018030000000000000000000018D8030F94
:1050000099FB0000000000000000000018D8FF1904
:10501000981B0000000000000000000018D8C01815
:10502000D81B000000000000000000001FD8FF98FF
:10503000D81BC000000000000000000018D866184F
:10504000D8330000000000000000000018DBFFD88B
:10505000D8730000000000000000000018D80019FC
:1050600098C3000000000000000000001FD87F0F60
:105070001B83000000000000000000000018C300B7
:105080001803000000000000000000000018C3002A
:1050900018030000000000000000000000187E005F
:1050A00018030000000000000000000000000000E5
:1050B00000000000000000000000000000000000F0
:1050C00000000000000000000000000000000000E0
:1050D00000000000000000000000000000000000D0
:1050E00000000000000000000000000000000000C0
:1050F00000000000000000000000000000000000B0
:10510000000000000000000000000000000000009F
:10511000000000000000000000000000000000008F
:10512000000000000000000000000000000000007F
:10513000000000000000000000000000000000006F
:10514000000000000000000000000000000000005F
:10515000000000000000000000000000000000004F
:10516000000000000000000000000000000000003F
:10517000000000000000000000000000000000002F
:10518000000000000000000000000000000000001F
:10519000000000000000000000000000000000000F
:1051A00000000000000000000000000000000000FF
:1051B00000000000000000000000000000000000EF
:1051C00000000000000000000000000000000000DF
:1051D00000000000000000000000000000000000CF
:1051E00000000000000000000000000000000000BF
:1051F00000000000000000000000000000000000AF
:10520000000000000000000000000000000000009E
:1052100000000F000000000000000000000000007F
:1052200000000F000000000000000000000000006F
:105230000000060000000000000000000000006008
:10524000000000000000000000600000000000F00E
:10525000000000000000000000F00000000000F06E
:10526000000000000000000000F0000000000060EE
:1052700000000000000000000060000000000000CE
:10528000000000000000000000000000000000001E
:10529000000000000000000000000000000000000E
:1052A00000000000000000000000000000000000FE
:1052B000000000000000000000000000030000608B
:1052C0007EC00600000060000000000003003E6099
:1052D00066C3E601F87E600000000000030066601F
:1052E000667666030C6060000000000003FE6360E9
:1052F00066C636030663E00000000000000063603D
:1053000066C636030C6060000000000000006360A9
:105310003CC636038C636000000000000FFF636032
:1053200001863600F83FE000000000000060666083
:1053300037E66600600060000000000003603C602B
:105340003003C60060180000000000000300006089
:1053500033E0060FFF1800000000000003000060AB
:1053600036600600001800000000000003FE006028
:105370003FC00600001FE000000000000000000029
:10538000000000000000000000000000000000001D
:10539000000000000000000000000000000000000D
:1053A00000000000000000000000000000000000FD
:1053B00000000000000000000000000000000000ED
:1053C00000000000000000000000000000000000DD
:1053D00000000000000000000000000000061F8028
:1053E00060000000000000000000000007E630C080
:1053F000F00000000000000000000000006630C067
:10540000F00000000000000000000000007E1F808F
:1054100060000003000000000000000000660000C3
:1054200000000007800000000000000000E6FFF020
:1054300000000007800000000000000001FE0600E0
:1054400000000003000000030000000003863FC0CE
:10545000000000000000000780000000060600C0F9
:1054600000000000000000078000000000063FC6AA
:1054700066600000000000030000018000063006A6
:105480006660000000000000000003C000063FE06E
:105490000000000000000000000003C00000000049
:1054A000000000000000000000000180000000007B
:1054B00000000000000000000000000000000000EC
:1054C00000000000000000000000000000000000DC
:1054D00000000000000000000000000000000000CC
:1054E000000000000000000000000000000001803B
:1054F000000000000000000000000000000003C0E9
:10550000000000000000000000000000000003C0D8
:10551000000000000000000000000000000001800A
:10552000000000000000000000000000000000007B
:105530000000000000030000000000000000000068
:1055400000000000000780000000000000000000D4
:1055500000000000000780000000000003000000C1
:105560000000000000030000006000000780000051
:10557000000000000000000000F0000007800000B4
:10558000000000000000000000F000000300000028
:1055900000000000000000000060000000000000AB
:1055A000000000C00000000000000000000000003B
:1055B000000001E00000000000000000000000000A
:1055C000000001E0000000000000000000000000FA
:1055D000000000C00000000000000000000000000B
:1055E00000000000000000000000000000000000BB
:1055F00000000000000000000000000000000000AB
:10560000000000000000000000000000000000009A
:10561000000000000000000000000000000000008A
:105620000000000000000000000000F0000000008A
:105630000000000000000000000000F01E00001E3E
:105640000000000000000000000000F01E00001E2E
:1056500000000000000003C0000000F01E00001E5B
:1056600000000000000003C0000000001E00001E3B
:1056700000000000000003C0000000000000000067
:1056800000000000000003C0000000000000000057
:10569000000000000000000000000000000000000A
:1056A00000000000000000000000000000000000FA
:1056B0000000000000000000000000000300006087
:1056C0007EC00600000060000000000003003E6095
:1056D00066C3E601F87E600000000000030066601B
:1056E000667666030C6060000000000003FE6360E5
:1056F00066C636030663E000000000000000636039
:1057000066C636030C6060000000000000006360A5
:105710003CC636038C636000000F00000FFF63601F
:1057200001863600F83FE000000F00000060666070
:1057300037E6660060006000000F000003603C6018
:105740003003C60060180000000F00000300006076
:1057500033E0060FFF180000002000000300006087
:1057600036600600001800000020000003FE006004
:105770003FC00600001FE000002000000000000005
:1057800000000000000000000060000000000000B9
:1057900000000000000000000040000000000000C9
:1057A00000000000000000000040000000000000B9
:1057B00007800000000000000080000000000000E2
:1057C00007800000000000000080000F00000000C3
:1057D00007800000000003C00180000F00061F804A
:1057E00007800000000003C00100000F07E630C082
:1057F00000000000000003C00300000F006630C07E
:1058000000000000000003C002000000007E1F80B6
:10581000000000000000000006000000006600001C
:1058200000000000000000000400000000E6FFF09F
:1058300000000000000000000C00000001FE060057
:105840000000001E000000001800000003863FC09A
:105850000000001E0000000010000000060600C04E
:105860000000001E000000003000000000063FC6DF
:105870006660001E000000002000000000063006E8
:1058800066600000000000004000000000063FE0ED
:105890000000000001F00000C00000000000000057
:1058A00000000000021000010000000000000000E5
:1058B00000000000041800020000000000000000CA
:1058C000000000000C08000C0000000000000000B8
:1058D00000000000080800180000000000000000A0
:1058E00000780000180800300000000000000008E8
:1058F0000078000010380063C0000000000000388D
:105900000078000010000183C0000000000000606B
:105910000078000010000703C0000000000000C075
:105920000000000010001C03C00000000F0E0080EB
:105930000000000010007000000000000F0981004E
:10594000000000001801C000000000000F18C60091
:10595000000000000FFF0000000000780F101C0086
:10596000000000000000000000000078000C300083
:105970000000000000000000000000780004E000CB
:10598000000000000000000000000078000380001C
:105990000000000000000000000000000000000007
:1059A0000000000000F00000000000000000000007
:1059B0000000000000F000000000000000000000F7
:1059C0000000000000F000000000000000000000E7
:1059D0000000000000F0000000000000000001E0F6
:1059E000000000000000000000000000000001E0D6
:1059F0000000000000000000001E0000000001E0A8
:105A00000000000000000000001E000011241FBE66
:105A1000CFEFD0E1DEBFCDBF13E0A0E0B1E0ECE41A
:105A2000FBE600E00BBF02C007900D92AC3FB10750
:105A3000D9F72CE0ACEFB3E001C01D92AE32B20753
:105A4000E1F745D30C94A4350C9400001816190600
:105A50005CF420E030E045E04A95F1F700002F5F6C
:105A60003F4F82179307B9F70895EF92FF920F9374
:105A70001F93CF93DF937B0128EE33E0AC01429F6D
:105A8000C001439F900D529F900D112484D7611542
:105A9000710581F08B01C5E6D0E088818061888343
:105AA000C701D4DF88818F7E8883C701CFDF015093
:105AB000110999F7DF91CF911F910F91FF90EF900E
:105AC000089562EB70E083E290E0CFDF66E870E07B
:105AD00083E290E0CADF66E870E083E290E0C5DF31
:105AE00088EC90E0B3DF62EB70E083E290E0BDDF32
:105AF00066E870E083E290E0B8DF66E870E083E299
:105B000090E0B3DF88EC90E0A1DF66E870E083E22C
:105B100090E0ABDF62EB70E083E290E0A6DF66E846
:105B200070E083E290E0A1DF6BE670E083E290E05A
:105B30009CDF6AE570E083E290E097DF6BE670E05F
:105B400083E290E092DF88EC90E080DF6AE570E02D
:105B500083E290E08ADF6BE670E083E290E085DF2D
:105B60006BE670E083E290E080DF88EC90E06EDF2F
:105B700065E670E083E290E078DF60E770E083E262
:105B800090E073DF60E770E083E290E06EDF88EC26
:105B900090E05CDF66E870E083E290E066DF6BE651
:105BA00070E083E290E061DF6BE670E083E290E01A
:105BB0005CDF60E770E083E290E057DF66E870E06A
:105BC00083E290E052DF62EB70E083E290E04DDF31
:105BD00088EC90E03BDF62EB70E083E290E045DF31
:105BE00066E870E083E290E040DF66E870E083E220
:105BF00090E03BDF88EC90E029DF62EB70E083E22D
:105C000090E033DF66E870E083E290E02EDF66E844
:105C100070E083E290E029DF88EC90E017DF66E82F
:105C200070E083E290E021DF62EB70E083E290E0DD
:105C30001CDF66E870E083E290E017DF6BE670E05F
:105C400083E290E012DF6AE570E083E290E00DDF2E
:105C50006BE670E083E290E008DF88EC90E0F6DE2F
:105C60006AE570E083E290E000DF65E670E083E2E1
:105C700090E0FBDE6BE670E083E290E0F6DE60E74A
:105C800070E083E290E0F1DE66E870E083E290E0AD
:105C9000ECDE66E970E083E290E0E7DE6FE970E059
:105CA00083E290E0E2DE62EB70E083E290E0DDDE32
:105CB0006FE970E083E290E0D8DE66E970E083E2AD
:105CC00090E0D3DE66E870E083E290E0CEDE2FEF76
:105CD00083ED90E3215080409040E1F700C0000048
:105CE000089562EB70E083E290E0BFDE62EB70E06B
:105CF00083E290E0BADE6FE970E083E290E0B5DE27
:105D000062EB70E083E290E0B0DE66E870E083E290
:105D100090E0ABDE66E870E083E290E0A6DE2FEF75
:105D200083EC99E0215080409040E1F700C00000F2
:105D300062EB70E083E290E098DE62EB70E083E279
:105D400090E093DE6FE970E083E290E08EDE62EB3C
:105D500070E083E290E089DE60E770E083E290E04B
:105D600084DE60E770E083E290E07FDE66E870E06A
:105D700083E290E07ADE2FEF83EC99E021508040BF
:105D80009040E1F700C0000062EB70E083E290E039
:105D90006CDE62EB70E083E290E067DE6AE570E063
:105DA00083E290E062DE6BE670E083E290E05DDE2D
:105DB00066E870E083E290E058DE66E970E083E236
:105DC00090E053DE6FE970E083E290E04EDE65E63E
:105DD00070E083E290E049DE65E670E083E290E007
:105DE00044DE6BE670E083E290E03FDE66E870E060
:105DF00083E290E03ADE60E770E083E290E035DE37
:105E000060E770E083E290E030DE66E870E083E215
:105E100090E02BCE089565E670E083E290E025DE09
:105E200065E670E083E290E020CE08956BE871E0D3
:105E300083E290E01ADE6BE871E083E290E015CE39
:105E400008951F93CF93DF93CDB7DEB72C970FB68E
:105E5000F894DEBF0FBECDBF9AD40FD44BE353E00E
:105E600062E084E068D4AE01455F5F4FBE01695FC8
:105E70007F4FCE0103968FD211E02FEF89E698E194
:105E8000215080409040E1F700C0000068E087E0CA
:105E90000FD461E0812F8DD41F5F163071F7AE01F2
:105EA000475F5F4FBE016B5F7F4FCE01019673D29C
:105EB0002FEF83ED90E3215080409040E1F700C048
:105EC0000000DBD32F8138858D819E81281B390B03
:105ED00081E090E02F31310514F480E090E02C96C1
:105EE0000FB6F894DEBF0FBECDBFDF91CF911F91EB
:105EF00008951F920F920FB60F9211248F939F93C4
:105F000081E090E090932104809320049F918F91F1
:105F10000F900FBE0F901F901895EF92FF920F9366
:105F2000CF93DF93EC017B01E0911A04F0911B0405
:105F3000EE0FFF1FEC5BFE4F00E120E1DB014C9117
:105F4000688180819181AFD4B701CE0167D29093EF
:105F50001B0480931A04DF91CF910F91FF90EF9073
:105F600008958F929F92AF92BF92CF92DF92EF925D
:105F7000FF920F93CF93DF934C015B0110921D04AE
:105F800010921C040F2EFAE0EF2EF12CF02DC12CF4
:105F9000D12C7ED5EC017CD581709078992324F4A6
:105FA00001978E6F9F6F0196C170D078DD2324F426
:105FB0002197CE6FDF6F2196CD2B41F5880F991F6A
:105FC000FC01E05EFE4F00E820E440E060E08081FC
:105FD000918169D44DE453E064E087E0ACD32FEFC6
:105FE00089E698E1215080409040E1F700C0000030
:105FF000B501C40113D2039739F40DDF2FEFC21A94
